:020000040800F2
:10000000000002200D1400080114000839A800089F
:100010000114000801140008011400080000000089
:1000200000000000000000000000000001140008B3
:10003000011400080000000001140008BDA700081A
:10004000011400080114000801140008011400083C
:10005000011400080114000801140008011400082C
:10006000011400080114000801140008817B000835
:100070008D7B0008ED620008997B0008A57B0008D5
:100080007DA00008AD6C00080114000801140008F0
:1000900001140008011400080114000801140008EC
:1000A00001140008011400080114000801140008DC
:1000B000B5790108C1790108CD790108E16C000822
:1000C00001140008ED6C000801140008A18C000860
:1000D000AD8C0008B19E0008DD9E0008119F00084D
:1000E00001140008011400080000000001140008B9
:1000F000011400080114000801140008011400088C
:100100000114000801140008D9790108B98C00080D
:10011000459F0008799F0008011400080114000899
:100120000114000801140008DD8C0008118D00087E
:10013000B1A000080114000801140008011400080F
:1001400000000000000000000000000000000000AF
:10015000011400080114000801140008AD9F0008F4
:10016000F96C000801140008CDA70008F1A70008E9
:100170000114000815A80008011400080114000863
:100180000114000801140008E19F000815A00008F0
:10019000C58C0008D18C0008011400080114000867
:1001A00001140008011400080114000801140008DB
:1001B00075780008011400080114000801140008F3
:1001C0000114000801140008B55D0008C15D0008B5
:1001D00001140008CD5D0008011400080114000896
:1001E000011400080114000801140008011400089B
:1001F000011400080114000801140008011400088B
:10020000011400080114000801140008011400087A
:10021000011400080114000801140008011400086A
:100220000114000801140008011400080000000077
:100230000114000801140008000000000114000867
:10024000011400080114000801140008011400083A
:10025000011400080114000801140008011400082A
:10026000011400080114000801140008011400081A
:10027000011400080114000849A000080000000053
:100280000114000801140008011400080000000017
:08029000000000000114000849
:1002A00010B5054C237833B9044B13B10448AFF3B0
:1002B00000800123237010BD80070024000000008F
:1002C00040CC010808B5034B1BB103490348AFF309
:1002D000008008BD000000008407002440CC010815
:1002E000034613F8012B002AFBD1181A0138704776
:1002F00001F0FF01102A2BDB10F0070F08D010F8D7
:10030000013B013A8B422DD010F0070F42B3F6D1DA
:10031000F0B441EA012141EA014122F007047FF0F3
:1003200000070023F0E80256083C85EA010586EA4A
:10033000010685FA47F5A3FA87F586FA47F6A5FA86
:1003400087F68EB9EED1F0BC01F0FF0102F0070292
:1003500032B110F8013B013A83EA010313B1F8D13D
:100360000020704701387047002D06BF354603381E
:10037000073815F0010F07D1013015F4807F02BF57
:10038000013015F4C03F0130F0BC0138704700BFA8
:1003900081F0004102E000BF83F0004330B54FEA36
:1003A00041044FEA430594EA050F08BF90EA020FA3
:1003B0001FBF54EA000C55EA020C7FEA645C7FEA36
:1003C000655C00F0E2804FEA5454D4EB5555B8BF59
:1003D0006D420CDD2C4480EA020281EA030382EACA
:1003E000000083EA010180EA020281EA0303362D5C
:1003F00088BF30BD11F0004F4FEA01314FF4801C2F
:100400004CEA113102D0404261EB410113F0004F40
:100410004FEA03334CEA133302D0524263EB4303F7
:1004200094EA050F00F0A780A4F10104D5F1200E95
:100430000DDB02FA0EFC22FA05F2801841F10001F0
:1004400003FA0EF2801843FA05F359410EE0A5F1C4
:1004500020050EF1200E012A03FA0EFC28BF4CF0F5
:10046000020C43FA05F3C01851EBE37101F00045AB
:1004700007D54FF0000EDCF1000C7EEB00006EEBB8
:100480000101B1F5801F1BD3B1F5001F0CD3490842
:100490005FEA30004FEA3C0C04F101044FEA445299
:1004A00012F5800F80F09A80BCF1004F08BF5FEA20
:1004B000500C50F1000041EB045141EA050130BD00
:1004C0005FEA4C0C404141EB0101013C28BFB1F512
:1004D000801FE9D291F0000F04BF01460020B1FA5D
:1004E00081F308BF2033A3F10B03B3F120020CDA30
:1004F0000C3208DD02F1140CC2F10C0201FA0CF00E
:1005000021FA02F10CE002F11402D8BFC2F1200C72
:1005100001FA02F120FA0CFCDCBF41EA0C01904028
:10052000E41AA2BF01EB0451294330BD6FEA040471
:100530001F3C1CDA0C340EDC04F11404C4F120025C
:1005400020FA04F001FA02F340EA030021FA04F36E
:1005500045EA030130BDC4F10C04C4F1200220FAC5
:1005600002F001FA04F340EA0300294630BD21FA03
:1005700004F0294630BD94F0000F83F4801306BFC9
:1005800081F480110134013D4EE77FEA645C18BFBD
:100590007FEA655C29D094EA050F08BF90EA020F54
:1005A00005D054EA000C04BF1946104630BD91EA4C
:1005B000030F1EBF0021002030BD5FEA545C05D14F
:1005C0004000494128BF41F0004130BD14F580048E
:1005D0003CBF01F5801130BD01F0004545F0FE4102
:1005E00041F470014FF0000030BD7FEA645C1ABF37
:1005F000194610467FEA655C1CBF0B46024650EA6E
:10060000013406BF52EA033591EA030F41F4002199
:1006100030BD00BF90F0000F04BF0021704730B51F
:100620004FF4806404F132044FF000054FF00001F4
:1006300050E700BF90F0000F04BF0021704730B5B5
:100640004FF4806404F1320410F0004548BF40428A
:100650004FF000013EE700BF42004FEAE2014FEADF
:1006600031014FEA02701FBF12F07F4393F07F4FBA
:1006700081F06051704732F07F4208BF704793F0BD
:100680007F4F04BF41F40021704730B54FF46074D0
:1006900001F0004521F000411CE700BF50EA0102D3
:1006A00008BF704730B54FF000050AE050EA01027C
:1006B00008BF704730B511F0004502D5404261EBEC
:1006C00041014FF4806404F132045FEA915C3FF42D
:1006D000D8AE4FF003025FEADC0C18BF03325FEACA
:1006E000DC0C18BF033202EBDC02C2F1200300FA7B
:1006F00003FC20FA02F001FA03FE40EA0E0021FAA0
:1007000002F11444BDE600BF53B94AB9002908BF3D
:1007100000281CBF4FF0FF314FF0FF3000F074B9DC
:10072000ADF1080C6DE904CE00F006F8DDF804E048
:10073000DDE9022304B070472DE9F047089D044627
:100740008E46002B4DD18A42944669D9B2FA82F284
:1007500052B101FA02F3C2F1200120FA01F10CFAC0
:1007600002FC41EA030E94404FEA1C48210CBEFBF8
:10077000F8F61FFA8CF708FB16E341EA034306FB81
:1007800007F199420AD91CEB030306F1FF3080F010
:100790001F81994240F21C81023E63445B1AA4B25D
:1007A000B3FBF8F008FB103344EA034400FB07F7FF
:1007B000A7420AD91CEB040400F1FF3380F00A8140
:1007C000A74240F207816444023840EA0640E41B35
:1007D00000261DB1D4400023C5E900433146BDE8E1
:1007E000F0878B4209D9002D00F0EF800026C5E983
:1007F000000130463146BDE8F087B3FA83F6002E9B
:100800004AD18B4202D3824200F2F980841A61EB12
:10081000030301209E46002DE0D0C5E9004EDDE730
:1008200002B9FFDEB2FA82F2002A40F09280A1EB18
:100830000C014FEA1C471FFA8CFE0126200CB1FB6D
:10084000F7F307FB131140EA01410EFB03F0884266
:1008500008D91CEB010103F1FF3802D2884200F2F3
:10086000CB804346091AA4B2B1FBF7F007FB101185
:1008700044EA01440EFB00FEA64508D91CEB040423
:1008800000F1FF3102D2A64500F2BB800846A4EB7E
:100890000E0440EA03409CE7C6F12007B34022FA69
:1008A00007FC4CEA030C20FA07F401FA06F31C4398
:1008B000F9404FEA1C4900FA06F3B1FBF9F8200CA5
:1008C0001FFA8CFE09FB181140EA014108FB0EF0EB
:1008D000884202FA06F20BD91CEB010108F1FF3A3B
:1008E00080F08880884240F28580A8F10208614447
:1008F000091AA4B2B1FBF9F009FB101144EA014155
:1009000000FB0EFE8E4508D91CEB010100F1FF34FF
:100910006CD28E456AD90238614440EA0840A0FB97
:100920000294A1EB0E01A142C846A64656D353D06D
:100930005DB1B3EB080261EB0E0101FA07F722FA91
:1009400006F3F1401F43C5E9007100263146BDE8BA
:10095000F087C2F12003D8400CFA02FC21FA03F31D
:10096000914001434FEA1C471FFA8CFEB3FBF7F09E
:1009700007FB10360B0C43EA064300FB0EF69E42C3
:1009800004FA02F408D91CEB030300F1FF382FD25C
:100990009E422DD9023863449B1B89B2B3FBF7F604
:1009A00007FB163341EA034106FB0EF38B4208D9DD
:1009B0001CEB010106F1FF3816D28B4214D9023E1E
:1009C0006144C91A46EA004638E72E46284605E73C
:1009D0000646E3E61846F8E64B45A9D2B9EB02080D
:1009E00064EB0C0E0138A3E74646EAE7204694E79D
:1009F0004046D1E7D0467BE7023B614432E73046D0
:100A000009E76444023842E7704700BF2DE9F0412E
:100A100004460D46164603F0B5FB88B1284600F0A3
:100A200095F90746204603F0ADFB2B4680463A4633
:100A300020463146C0473846BDE8F04117F082BE37
:100A4000BDE8F08138B505460C46084631B9296045
:100A5000C5E90100C5E90344204638BD17F06AFE28
:100A6000286038B10023C5E9010003602046C5E9CC
:100A7000034438BD024B3121024A034817F0EAFD16
:100A8000B8B501085CB60108D4B50108006817F0D4
:100A900059BE00BF83681B685A1C02D102681368E4
:100AA00082601846704700BF01F108020369934253
:100AB00070B4D0E9014508D3043121448D4201D8F6
:100AC000A5421AD8201D70BC7047C168914214D34A
:100AD000A54294BF002301237BB9066832449542A6
:100AE0000ED3466001613360BFF35E8F00684FF044
:100AF000FF330430236070BC7047002070BC704727
:100B00001846F8E701F1080208B5036993420FD3CC
:100B10005B1A426801F1040C043B036102EB0C0315
:100B20004360002342F80C30BFF35E8F116008BDB4
:100B3000024B6B21024A034817F08CFDE4B5010813
:100B400050B60108D4B50108806850F8043B0B602A
:100B5000704700BF08B583681A681AB1043213449D
:100B6000836008BD024B7F21024A034817F072FDE3
:100B70001CB6010844B60108D4B5010808B5034AFB
:100B80003A21034B034817F065FD00BF6CB701081D
:100B900068B6010878B6010808B50260818019B10D
:100BA0000131C900C18008BDFFF7E8FF034A80EDAD
:100BB000030AC0E90012012202727047010010000E
:100BC000002210B4034C0272C260C0E900145DF848
:100BD000044B70470100100070B50123044601600A
:100BE0001046A3801646FFF77BFB054602233046DE
:100BF0001035E6602372ADB2E580FFF771FB034666
:100C0000204601331D44E58070BD00BF2DE9F04F43
:100C1000838883B00192002B5FD00133019AB2EB3D
:100C2000C30F4FEAC30952D30F4680464A460146D6
:100C3000384607EB090B17F08DFDB8F80420AAB36E
:100C40000C25012406E0944204F1010305F1080596
:100C50002CDA1C4618F834A0BAF1020FF3D158F878
:100C6000051008460091FFF73BFB461C019BB14471
:100C7000009999451FD83246584618F0ABFCB98800
:100C8000621E91421DDD584607F834A047F805B0B2
:100C9000B344FFF725FBFB88B8F80420083501337F
:100CA0009442184404F10103F880D2DBA7F80690BF
:100CB00003B0BDE8F08F0A4B4A210A4A0A4817F0F0
:100CC000C9FC0A4B94210A4A0A4817F0C3FC0A4B94
:100CD0004121044A044817F0BDFCFFF74FFF00BF55
:100CE000C0B601087CB70108B4B6010884B6010893
:100CF00090B7010878B60108A4B6010808B5838842
:100D0000994214DA083010F8313000EBC100032B9F
:100D100013D8DFE803F004020702406808BD4FF073
:100D2000FF3008BD4068BDE8084000F027BB044B19
:100D30009321044A044817F08DFC002008BD00BF31
:100D4000D8B6010860B70108B4B601082DE9F04F24
:100D500085B0838802AF002B00F0A7809A000026A0
:100D6000834604460732DFF87CA13546386022F01E
:100D70000702ADEB020D0DF10808C146227A032AE5
:100D800000F2A880DFE802F04534300231465846D0
:100D9000FFF7B4FF524603460021084618F0CCFB8B
:100DA000BBF804300130C9F80000013605440834AE
:100DB00009F104099E42E1DB2A467D603D68002A74
:100DC0007FDD78683B6017F0B5FC8246002872D062
:100DD0003B68002B3CD0002634462B7A032B76D878
:100DE000DFE803F0594A401B0021E3683B4AD4E79F
:100DF00094ED037A00213A4AB7EEC77A08468DEDA2
:100E0000007B18F099FB0130BBF80430C9F80000F2
:100E1000CBE70520C9F80000C7E7D8F800903146B5
:100E20005846FFF76BFF2F4A034649460AEB04007A
:100E300018F082FB4C440136BBF8043020210AEB49
:100E4000040208359E4208F1040802F8011CC4DBC4
:100E50007B68002250460C37534403F8012CBD46F2
:100E6000BDE8F08FD8F800900AEB0400EB681B4A4D
:100E7000494618F061FBDDE795ED037A0AEB0400C3
:100E8000D8F80090B7EEC77A154A49468DED007B39
:100E900018F052FBCEE7D8F800900AEB0400124B92
:100EA0000E4A494618F048FBC4E7104BA221104AED
:100EB000104817F0CFFB104BB9210D4A0D4817F021
:100EC000C9FB0E4BB4210A4A0A4817F0C3FBD8F8F5
:100ED0000090AFE7D9F8000067E700BF14B701083A
:100EE00010B7010818B7010848B70108F4B601089F
:100EF00050B70108B4B601082CB7010820B70108A3
:100F000008B5034A3821034B034817F0A3FB00BF81
:100F1000D0B80108A0B70108B4B7010838B5044635
:100F20008D022846656017F005FC206058B100234B
:100F30002846C4E90233C4E90433C4E90633C4E9EA
:100F40000833A36238BD034B5721034A034817F007
:100F500081FB00BFC4B70108D8B80108B4B70108C5
:100F600070B504460025006804F1200617F0EAFB7E
:100F7000E068A8B1236901E0034610464268C0E971
:100F80000053002AF8D1E26000E04368236117F0C3
:100F9000D9FB20690028F8D10834B442E8D170BDEB
:100FA00020690028F1D10834B442E1D1F7E700BF4D
:100FB00038B50D4620220021EB88013BB3FA83F3BC
:100FC000C3F11B0323EAE37300EBC3049A402846F2
:100FD00017F0CEFB206930B142682261E268C0E9B7
:100FE0000052E06038BD082017F0A4FB0028F5D1BE
:100FF000FFF786FFCB88013BB3FA83F3C3F11B03F2
:10100000032B2DE9F04F83B04BDC23EAE3724FF062
:1010100020088946824600EBC20508FA02F8EB6810
:101020001E46002B33D1D0E9012404F5007B5A453C
:101030003DD35C4518D2016809E05A682A614444EE
:101040003246A345C3E900761E46EB600ED92B69F4
:101050000F19002BF1D10820019117F06BFB03460B
:10106000E8B1EE680199EAE7D3E90072CAF808B07E
:101070004846EA6042462969596000212B6119609F
:101080003946FFF7C3FD384603B0BDE8F08F596815
:10109000424648461F68E96029695960EDE7FFF755
:1010A0002FFF064B7921064A064817F0D3FA064B64
:1010B0008421034A034817F0CDFA00BFE0B70108C6
:1010C000C0B80108B4B70108E8B7010808B5034A79
:1010D0002921034B034817F0BDFA00BF1CB90108D2
:1010E000E0B80108F8B8010808B549B10346002284
:1010F0000C309A60C3E90022BDE80840FFF70EBF3C
:10110000024B1421024A034817F0A4FA0CB9010853
:1011100038B90108F8B80108F8B50468054624B3E1
:1011200000F10C070026A1683846FFF741FF63680D
:10113000A660AA68C4E903662B602BB11E60C4E9EF
:101140000062AC601C46EEE76B60C4E9003200E070
:1011500062682046AA6017F0F5FAAC68002CF7D157
:101160003846BDE8F840FFF7FBBE846800F10C0785
:10117000002CEDD13846BDE8F840FFF7F1BE00BFC6
:10118000F0B5846883B0054617461E46B4B163685F
:10119000AB6005F10C00FFF72DFF00226B682761A3
:1011A000E660A060C4E9002223B15C6023606C604B
:1011B00003B0F0BDC5E9004403B0F0BD14200191B7
:1011C00017F0B8FA0199A86018B1234644600446A4
:1011D000DEE7FFF77BFF00BF2DE9F0410568002D3A
:1011E00035D0856804460E4690461F46002D32D005
:1011F0006B683146A36004F10C00FFF7FBFE236827
:101200003668A8609A68C5F810801268EF60964248
:1012100006D200226B601D602A602560BDE8F08167
:10122000626891680968B14206D80023C5E90023C5
:1012300055606560BDE8F08119465B689A68126880
:10124000B242F9D94D60C5E900131D60E6E7BDE87B
:10125000F041FFF795BF142017F06CFAA06018B1A9
:101260002B4645600546C4E7FFF730FF38B50568F3
:101270008DB10446A9680C30FFF79AFE00236A6816
:10128000AB60C5E90333226032B11360A26800236A
:10129000C5E90032A56038BD6260F7E770B5056842
:1012A0008DB1AB68064699420FD06C6824B90AE04C
:1012B00060682546044638B1A3688B42F8D16AB10C
:1012C000E36893420AD0002070BD12B1EB689342EC
:1012D000F9D13046FFF7CAFF012070BD06F10C00BE
:1012E000FFF766FE72680023A242A360C4E90333DD
:1012F0000AD063686B6063681D60B26800230120D8
:10130000C4E90032B46070BD6B607560F5E700BF82
:101310002DE9F04185688D4221D001F10108044694
:101320000E4600684FEA880118F0AAF80746AD009B
:10133000C0B1A068B04209D3A8EB0505A660C4F807
:101340000C80281FC4E90076BDE8F081A8EB0002FC
:10135000002107EB8000920017F00AFAECE700206A
:10136000BDE8F081024B4621024A034817F072F9AA
:1013700074B9010888B9010868B9010810B50446B4
:1013800048B3FEF7ADFF032835D9A0F1040C02469F
:101390001A492CF0030C0CF1040CA44454F8043B3F
:1013A00001FB02F201FB03F3644583EA136301FBD3
:1013B00003F382EA0302F1D100F0030002280FD008
:1013C000032809D001280FD082EA52330B4803FBCF
:1013D00000F080EAD03010BD9CF8023082EA03426F
:1013E0009CF8013082EA03229CF800300349534004
:1013F00001FB03F2E8E70246A446DFE795E9D15B8B
:10140000684620F007018D46FEE700BF0B480C4AF6
:10141000904208B503D0121A0A4917F09BF90A48FE
:101420000A4A904203D0121A002117F0A1F909F0DC
:101430006BFC17F05BF902F03BFBFEE700000024B9
:101440007C0700247CCC010880070024B41401240C
:101450004069704790ED020B704700BF006970470C
:1014600007EE901A9FED065BB8EE677B90ED026B7E
:1014700027EE057B87EE060BB7EEC00B704700BF6B
:101480000000000000408F4081657047806D70470C
:1014900001657047006D704741657047406D70474A
:1014A00008B50368D3F88C30984700B1006808BDD0
:1014B00008B50368D3F88C30984700B1406808BD80
:1014C0000023BFF35B8F80F884307047000000007A
:1014D000B0B582B004460D46002100AF84B06A4624
:1014E00010467A60FFF76CFB23687A682946DB6C4C
:1014F00020469FED030B98470837BD46B0BD00BF9F
:101500000000000000000000B0B582B004460D46A7
:10151000002100AF84B06A4610467A60FFF746FBB0
:1015200023687A682946DB6C20469FED030B9847B9
:101530000837BD46B0BD00BF00000000000000003D
:10154000F8B500AF8AB184B004460D4600216E465E
:101550003046FFF741FB236832462946DB6C2046C4
:101560009FED050B9847BD46F8BD054B5321054A35
:10157000054817F06FF800BF0000000000000000F1
:1015800098B90108A8B90108F0B9010884304FF0F2
:101590000102D0E84F3FC0E8412F0029F9D1DBB26A
:1015A000BFF35B8F002BF2D1704700BF4FF00102F9
:1015B0008430D0E84F3FC0E8412F0029F9D1D8B29C
:1015C000BFF35B8F80F00100704700BF1830FFF75A
:1015D00065BE00BF036810B5D3F88C301446984739
:1015E00018B12146FFF794FE012010BD0000000055
:1015F000DFED0B7A90ED025B87FE800AB7EEC00A42
:101600009FED056B20EE050B80EE067BFCEEC77BA5
:1016100017EE900A704700BF0000000000408F40A6
:1016200000000000F8B5DE8800F170051C46174682
:10163000043628463146FFF737FA60B10146E288A2
:10164000204641F8047BFFF7E1FA31462846BDE821
:10165000F840FFF757BA034B1E21034A034816F020
:10166000F9FF00BF04BA0108D0BA0108F0B90108B7
:1016700010B50C1E82B00ADD5C300190FFF706FA4F
:10168000A102019802B0BDE81040FFF7DBB9034B9F
:10169000B921034A034816F0DDFF00BF28BB01084B
:1016A00038BB0108F0B9010810B50C1E82B00ADD84
:1016B00070300190FFF7EAF9A102019802B0BDE88D
:1016C0001040FFF7BFB9034BBF21034A034816F090
:1016D000C1FF00BF74BB010884BB0108F0B9010859
:1016E0002DE9F04317469846026D0E46294B00211E
:1016F00083B09A42316046D1054600F1850C4FF027
:10170000010EDCE84F4FCCE843EF002BF9D1E4B2F7
:10171000BFF35B8F002CF2D105F170094846FFF74B
:10172000B9F9A8B101A948460194FFF70DFAC0B173
:10173000019A132A1BD990451FD30146384601242C
:1017400051F8043B336017F005F84846FFF702FAFA
:1017500000232046BFF35B8F85F8853003B0BDE8DA
:10176000F0830D4BCF210D4A0D4816F073FF0D4B42
:10177000D0210A4A0A4816F06DFF0B4BD121074AC7
:10178000074816F067FF094BC721044A044816F0C2
:1017900061FF00BF25160008B8BC010868BC01083D
:1017A000F0B90108FCBC010824BD0108C0BB010858
:1017B0002DE9F84F2DED028B9FED338BB4EEC80B66
:1017C000F1EE10FA59DB1746002A50D0036805469F
:1017D000314A88469B6988FE008B066993423ED158
:1017E00090ED020B9FED2A6B05F1840380EE067BE2
:1017F00027EE087BBCEEC77B17EE102A3244164654
:101800004FF0010CD3E84F4FC3E842CF002AF9D183
:10181000E4B2BFF35B8F002CF2D1B7F806A005F15C
:101820005C0B0AF1040A58465146FFF73DF9814620
:10183000B8B10146FA88384641F8048BFFF7E6F95B
:1018400058465146C9F80460FFF75CF9BFF35B8F57
:1018500085F884400120BDEC028BBDE8F88F9847E5
:10186000C0E70E4B83210E4A0E4816F0F3FE0E4BD6
:1018700074210B4A0B4816F0EDFE0C4B7321084AFD
:10188000084816F0E7FE00BF00000000000000005E
:101890000000000000408F405514000814BE0108ED
:1018A000B4BD0108F0B9010804BE0108A4BD0108D7
:1018B0002DE9F04F2DED048B9FED719B43EC182B20
:1018C00085B0B4EEC98B00AFF1EE10FABE6CC0F279
:1018D000D080002E00F0C78007F14C0382463046CE
:1018E0008946FB60FEF7FCFC8346002800F0B580CB
:1018F000C3006749DAF8102089FE089B0833ADEB76
:10190000030DDAF800309B69E8468B4240F0828094
:101910009AED020B29EE009B59464046013E454692
:1019200000249FED596B89EE067BBCEEC77B17EE5A
:10193000103A13441A46FFF72FF916F8013F623B9D
:10194000112B11D8DFE803F0091010104E103E10D3
:1019500010101010101010101023B8F80430A3420B
:1019600063DD00232B72EB6001340835A345E4DC12
:10197000DAF80030B0EE480B424649465046DB6C80
:1019800098471437BD46BDEC048BBDE8F08FFB686B
:10199000B8F80420191D1868A242F9603FDD00283C
:1019A00055D00223E860013408352B70FEF798FC0F
:1019B000B8F80630A34503F101031844A8F806005F
:1019C000BBDCD5E7FB68B8F80420191D1B68A242F0
:1019D000F96036DD01340322EB600835A3452A7037
:1019E000ABDCC5E7FB68B8F804200733A24223F05C
:1019F000070393ED007B03F10803B7EEC77BFB60A1
:101A000019DD0134012385ED037A0835A3452B70D8
:101A100093DCADE77A60504698477A687AE71D4BC9
:101A200094211D4A1D4816F015FE1A4B69211C4AC7
:101A30001A4816F00FFE174B73211A4A174816F072
:101A400009FE144B8221184A144816F003FE174B66
:101A50009521114A114816F0FDFD154B3A21154A02
:101A60000E4816F0F7FD144B5C21144A144816F08A
:101A7000F1FD144B5B21114A114816F0EBFD00BF3C
:101A800000000000000000000000000000408F4047
:101A90005514000884B60108F0BF010878B60108A3
:101AA00074BF010898BF0108C4BF010824C0010821
:101AB00068B6010854BF010840BF0108E8BE01082C
:101AC000F0B90108A4BD0108B5EEC00B70B5F1EE88
:101AD00010FA1D46294B80ED020B036036DD00290C
:101AE00046DD002A16463DDD002D35DB4FF00003B4
:101AF00004460361C0E915330CBF2B46204B183058
:101B000083630023BFF35B8F80F86C30BFF35B8F80
:101B100080F86D30882340F8043CFFF7E5FA6369EC
:101B2000B102034404F15C006361FEF78BFF63695B
:101B30000246A90204F1700013446361FEF782FFBC
:101B40006369024620461344636170BD0D4B272133
:101B50000D4A0E4816F07EFD0D4B2A210A4A0B480D
:101B600016F078FD0B4B2921074A084816F072FD44
:101B7000094B2821044A054816F06CFD9CC0010859
:101B80002516000830C0010844C00108F0B901085A
:101B900084C0010828BB010878C00108084B10B5B3
:101BA000044640F8183BFFF7B7FA04F15C00FEF773
:101BB0006DFF04F17000FEF769FF204610BD00BF05
:101BC0009CC0010849424FF480623430C9B216F01B
:101BD000CFBD00BF704700BF704700BF704700BF58
:101BE000704700BF40207047802070470120704739
:101BF00010B5044640F2344116F0EDFA204610BD0F
:101C00001BB913690BB1D26818477047B9B30144C7
:101C1000F0B51546A5B002F12407441E4E1E01E0A2
:101C2000A6422AD014F8011F6A46384603F030FF56
:101C30000028F5D0D5F8C4C090226946D5E9320312
:101C4000C31A00F1010E00EBC00048BF63440CF161
:101C5000FF3C9C45E4D0D5F8C030C5F8C8E003EBA4
:101C6000001016F077FDD5E931239342A3EB020370
:101C700028BFC5F8C830A642D4D125B0F0BD704702
:101C800070B5A4B00D46302116466C46284617F0B4
:101C9000B4FC294602460546204617F081FC324B2B
:101CA000C5F13F0231461B8813AD20F8013B17F008
:101CB00077FC4023412200212846CDE9113516F05A
:101CC00057FD9DF80020002A4CD000230DF10101A2
:101CD00011F8010B01330028FAD1402B28BF402313
:101CE000E1181093A14209D023460139284601E0AA
:101CF00013F8012F994200F8012BF9D11B48D0E9C4
:101D000002234168D31A48BF5B180139994201D1B7
:101D100024B070BD02EB82050668013210994FEACB
:101D2000051C06EB05158260129A6B68994228BF64
:101D30001946AB6846F80C1051B1013A194412F833
:101D4000014F03F8014B9942F9D1AB6856F80C10DA
:101D500000225A54D0E901239342D9D39B1A8360BD
:101D600024B070BD1092C9E730C101089C0700245F
:101D7000F0B5064683B00D46144652B192000021DC
:101D80002868019216F0F4FC019A0021686816F0A8
:101D9000EFFC0D4F0D4803F0DDFC0D4803F058FD3E
:101DA00038680C4B0C4993ED350A03685B6D984716
:101DB000386823462A4604683146246CA44603B09A
:101DC000BDE8F040604700BF58B30024C41C0024A5
:101DD000E41C0024FC1B0024C4B27C472DE9F04124
:101DE000B02482B000F1080600F1200500F13408AB
:101DF000002728468DF807400134394604F0FEFDDF
:101E0000642301220DF107013046E4B207F0AEF978
:101E1000394628468DF8077004F0F0FD012264234E
:101E20000DF10701304607F0A1F910233946284685
:101E30008DF8073004F0E2FD642301220DF1070163
:101E4000304607F093F90121284604F0D7FD80229F
:101E5000414664233046904407F088F9B82CC7D136
:101E600002B0BDE8F08100BF2DE9F04F89B008ACA9
:101E70009DF84870019104E90C000B78002B00F0EC
:101E8000AB801A469DF818809DF8193006464546E5
:101E900090460393079B0593A8F12004E3B25E2BC1
:101EA00000F29E8033685E4ADB68934240F09B807C
:101EB0008020B3882B44834200F392803368594AD0
:101EC0009B68934240F092804020F188039A0291EF
:101ED0008B18834200F38480002A00F0918002FB7B
:101EE00004F46FF00049059BA1441444B6F804B013
:101EF00003EB4909023BCDF8108003EB44030C4689
:101F00009A4639F802CFA5B304F007034FF0010E4B
:101F1000E20859460EFA03FE0BF134034FFA8EFE27
:101F200003EBC21200236FEA0E0832440DE07F2952
:101F300006D83F2C04D8107897B14EEA00001070F4
:101F4000013301320131AB4213D00CFA03F000042B
:101F5000EDD47F29F4D83F2CF2D81078002FECD0A4
:101F6000013308EA000001320131AB4202F8010CF2
:101F7000EBD1D14504F10104C3D1DDF81080326802
:101F80000BEB05042649D368A4B28B4234D18020E0
:101F9000844204D3D36822498B423AD17F24936888
:101FA000204AB480934224D14020029B834206D32E
:101FB00033681C4A9B68934225D13F230293029BBE
:101FC000F380019B1878404507D113F8018F0193E6
:101FD000B8F1000F7FF460AF002009B0BDE8F08FCA
:101FE0004FF00008EDE73046984762E730469847E3
:101FF0006BE730469847D8E7304698473268C7E7DE
:10200000B6F804B0BBE730469847013883B2029374
:10201000D5E7304698470138326884B2BFE700BF41
:10202000E91B0008E51B00082DE9F04F85B0A1F180
:10203000200504AC9DF83870009104E90C00EBB267
:102040005E2B00F29580036880465D4ADB689DF850
:10205000084093429DF8096040F094808020B8F8D1
:1020600004302344834200F38380D8F80030554A7B
:102070009B68934240F088804020B8F8062093196E
:102080000192834274DC002E00F0898006FB05F586
:102090006FF00040039B964628442E44B8F804A0F5
:1020A00003EB4000023B03EB460B30F8026FBCB37E
:1020B0000EF007034FF0010C4FEADE0251460CFA16
:1020C00003FC0AF134034FFA8CFC03EBC212002329
:1020D0006FEA0C0942440EE07F2907D8BEF13F0F9A
:1020E00004D815789FB14CEA05051570013301320B
:1020F00001319C4214D006FA03F52D04ECD47F295B
:10210000F4D8BEF13F0FF1D81578002FEBD0013392
:1021100009EA0505013201319C4202F8015CEAD16D
:1021200058450EF1010EC0D1D8F80030544424496E
:10213000DA68A4B28A422DD1802084421CD29B68E6
:10214000204AA8F80440934221D14020019B8342B9
:1021500007D3D8F800301B4A9B68934229D13F230C
:102160000193DDE90003A8F8063005B0BDE8F08F63
:10217000002005B0BDE8F08FDA6811498A4211D11C
:102180007F24DCE798476AE74046984775E7404672
:102190009847DBE740469047D8F80030CDE7B8F8DD
:1021A00004A0C1E7404690470138D8F8003084B217
:1021B000C5E740469847013883B20193D1E700BF95
:1021C000E91B0008E51B00082DE9F04F89B01D460A
:1021D000884606901046129C10F8013B13999DF812
:1021E0005060009233B1002210F8013B0132002B05
:1021F000FAD193B22A78687812FB03F302B21BB2C9
:1022000023EAE373082900F2A981DFE811F0020153
:1022100014012001340142015001670171010900DC
:10222000A18827880F44B4F90610FF1A0029BFB20D
:10223000C0F2FF80B4F802C006980CEB6104C280C3
:10224000A4EB52028380078094B24480A64AD8F857
:10225000003011460192DA688A4240F08D81802078
:10226000B84205D8DA6801998A4240F09A817F27FE
:102270009E4A9B68A8F804709342039240F08981BB
:102280004020A04207D8D8F80030039A9B689342B8
:1022900040F082813F24009BA8F8064093F800B0EC
:1022A0006B782C7804936B680793BBF1000F00F0F8
:1022B000AC80ABF12005EBB25E2B00F22E81D8F89A
:1022C0000030019ADB68934240F02A818020B8F800
:1022D000043023449842C0F22081D8F80030039A99
:1022E0009B68934240F01F814020B8F80610049A82
:1022F00002918B189842C0F21081002A00F01E81D2
:1023000002FB05F56FF0004E079BAE441544CDF877
:1023100014B003EB4E0E023BB8F804A003EB4503E8
:102320000D469B463EF8027FA4B305F007034FF02D
:10233000010CEA0851460CFA03FC0AF134034FFA87
:102340008CFC03EBC21200236FEA0C0942440DE03F
:102350007F2906D83F2D04D8107896B14CEA0000AA
:1023600010700133013201319C4213D007FA03F09F
:102370000004EDD47F29F4D83F2DF2D81078002E38
:10238000ECD0013309EA0000013201319C4202F82D
:10239000010CEBD1F34505F10105C3D1DDF814B013
:1023A000D8F800200AEB04050199D368ADB28B423E
:1023B00040F0BF808020854205D3D36801998B42CD
:1023C00040F0C5807F259368039AA8F80450934293
:1023D00040F0AC804020029B834208D3D8F8003004
:1023E000039A9B68934240F0AC803F230293029B88
:1023F000A8F80630009A13785B4506D112F801BFA1
:102400000092BBF1000F7FF454AF069809B0BDE80D
:10241000F08FB4F9041027880029B8BF013107EB09
:102420006107B4F90610A7EB63070029BFB2BFF636
:1024300001AF0131FEE6B4F900700699B4F902402B
:102440000F80BFB24C80A4B28B80CA80FEE6B4F984
:10245000041027880029B4F90240B8BF013107EB06
:10246000610706998B80A7EB63034C80A4B29FB2EF
:10247000CA800F80EAE6A1882788B4F902400F4499
:1024800006998B80FB1A4C80A4B29FB2CA800F8041
:10249000DCE6E78861883944B4F90070081A0699C7
:1024A00084B20F808B80BFB2CA804C80CEE6B4F974
:1024B000041027880029B8BF013107EB6107A7EB9B
:1024C0006307B4F802C0BFB2E488069964448B8005
:1024D000201ACA800F8084B24C80B7E62788A18872
:1024E0000F44FF1AEDE700BFE91B0008E51B0008D9
:1024F000B4F90610B4F802C00029B4F900700698C7
:10250000B8BF0131C2800CEB610407808380BFB289
:10251000A4EB520294B2448098E64FF0000B69E7B6
:1025200040469847D3E640469847DEE640469847FF
:1025300051E740469847D8F800203CE7B8F804A097
:102540002EE740469847013883B202934FE7404652
:1025500098470138D8F8002085B234E7D8F8003021
:102560000024069A1249148054809480D480DA683A
:1025700001918A4205D0274640469047D8F800305E
:102580006EE69B680B4AA8F80440934203923FF41E
:1025900082AE4046984774E640469847013884B278
:1025A00079E6404690470138D8F8003087B25FE6B8
:1025B000E91B0008E51B00087F2922D83F2A20D804
:1025C0007BB1D3084FF0010C02F0070201EBC313FB
:1025D0000CFA02F2C11891F834301A4381F8342011
:1025E0007047D3084FF0010C02F0070201EBC31350
:1025F0000CFA02FCC11891F8342022EA0C0281F88E
:10260000342070472DE9F04F83B05C1A0C9E002CEB
:102610009DF83490A6EB0208B8BF6442B8F1000FF1
:10262000B8BFC8F100088B428CBF4FF0010A4FF0D1
:10263000FF3A9642A4EB080C52D84FF0FF357F2B9F
:10264000019513D83F2E11D8F50806F0070E012783
:1026500003EBC5150544B9F1000F48D007FA0EF792
:1026600095F834E047EA0E0785F83470964201D1B8
:102670008B4229D0C8F100077F2914D83F2A12D8ED
:10268000D50802F0070B4FF0010E01EBC51505440C
:10269000B9F1000F1BD00EFA0BFE95F834B04EEADC
:1026A0000B0E85F834E0B7EB4C0F4FEA4C0502DA1D
:1026B000ACEB080C5144AC4202DD019DA4442A4419
:1026C0009942D9D19642D7D103B0BDE8F08F0EFA26
:1026D0000BFB95F834E02EEA0B0E85F834E0E2E7C8
:1026E00001257F2B0195C5D83F2EADD9C2E707FA4A
:1026F0000EFE95F83470964227EA0E0785F834707E
:10270000B6D0B7E7000000002DE9F04F2DED068BA5
:1027100083B01F4680460D469DF850301646019303
:10272000139B002BC0F22182129A134406EE103A3A
:10273000DDED127AB8EEC66B9FEDCD4BB8EEE77BC0
:102740009FEDCD5B27EE047B26EE046B87EE050B39
:1027500086EE05ABF7EEC08BB0EE680A15F070FDA3
:1027600007EE907AB7EECAABF8EE679AB0EE408A01
:10277000B0EE680A15F060FE60EE698AB0EE4A0AB3
:1027800015F05EFDB0EE409AB0EE4A0A15F054FE28
:1027900020EE690A29EE888A29EE899A70EE687A15
:1027A000F0EE006A39EE487A67EEA77AE7EE077A2C
:1027B000F4EEE67AF1EE10FA06D5139BB42B40F353
:1027C00096804FF0010901E04FF0000901247842A2
:1027D0004FF0000C0095E31B214627462246A340FC
:1027E000B9F1000F6AD1424206EE90CACCF1000165
:1027F00007EE102AB8EEE66A07EE901A06EE900A87
:10280000B8EEC77A139A66EE084AF8EEE77AB42A69
:1028100027EE284AF8EEE66A67EE885A74EEC43A64
:1028200026EEA85A26EE096A66EE806A67EE897A75
:1028300027EE007AF5EEC03A40F3F280F1EE10FA9E
:1028400000F17F8176EE473A74EEC54AF5EEC03A64
:10285000F1EE10FAF5EEC04ACCBF01220022F1EEF3
:1028600010FA00F1778136EE666A35EEC55AB5EE9C
:10287000C06AF1EE10FAB5EEC05ACCBF01210021BA
:10288000F1EE10FA00F16F8177EEE66AF5EEC06ABC
:10289000F1EE10FACCBF0127002775EEC45AF5EE11
:1028A000C05AF1EE10FA00F1478177EEC77AF5EEE3
:1028B000C07AF1EE10FACCBF01240024002A40F0C7
:1028C0008A80002964D1BFB9C4BB9C4558DB0CF198
:1028D000010C03EB4C0E1CEB000F0EF1010E00F08F
:1028E000C08098424FDB734600287FF779AF03B072
:1028F000BDEC068BBDE8F08F009DA6EB0C0E00EB47
:10290000050ABAF17F0FDFD8BEF13F0FDCD84FEADE
:10291000DE0B019D0AEBCB1A002D00F0B1800EF00A
:10292000070BC2444FF0010E0EFA0BFE9AF834B0BA
:102930004EEA0B0E8AF834E0002CC6D0009DA6EBC0
:102940000C0EA5EB000ABAF17F0FBED8BEF13F0F07
:10295000BBD84FEADE0B019D0AEBCB1A002D00F02D
:10296000AE800EF0070BC2444FF0010E9C450EFAEC
:102970000BFE9AF834B04EEA0B0E8AF834E0A6DA71
:1029800098429E46AFDA01300EEB40030133ABE7CD
:10299000009D0CEB060E00EB050ABAF17F0F92D8F2
:1029A000BEF13F0F8FD84FEADE0B019D0AEBCB1A29
:1029B000002D73D00EF0070BC2444FF0010E0EFA3B
:1029C0000BFE9AF834B04EEA0B0E8AF834E0002F72
:1029D0003FF47AAF90E7009D0CEB060EA5EB000AE2
:1029E000BAF17F0F3FF66DAFBEF13F0F3FF669AF13
:1029F0004FEADE0B019D0AEBCB1A002D6DD00EF0D5
:102A0000070BC2444FF0010E0EFA0BFE9AF834B0D9
:102A10004EEA0B0E8AF834E000293FF454AFB7E7D2
:102A2000F1EE10FA7ED44A4674EEC54AF5EEC04A7D
:102A3000F1EE10FA6CD4002135EEC55AB5EEC05A4D
:102A4000F1EE10FA5AD4002775EEC45AF5EEC05ACA
:102A5000F1EE10FA3FF529AF0024002A3FF431AF20
:102A6000B9E798428FDB00233BE700BFAFF300805C
:102A70007A008BFCFA2109400000000000806640CB
:102A8000C2444FF0010B0EF0070E0BFA0EFE9AF83F
:102A900034B02BEA0E0E8AF834E015E7C2444FF04A
:102AA000010B0EF0070E0BFA0EFE9AF834B02BEA6B
:102AB0000E0E8AF834E0002F3FF406AF1CE7C24444
:102AC0004FF0010B0EF0070E0BFA0EFE9AF834B021
:102AD0002BEA0E0E8AF834E0F7E6C2444FF0010B01
:102AE0000EF0070E0BFA0EFE9AF834B02BEA0E0E1B
:102AF0008AF834E000293FF4E6AE49E777EEE66A6B
:102B0000F5EEC06AF1EE10FACCBF012700279BE773
:102B100036EE666AB5EEC06AF1EE10FACCBF01215E
:102B2000002189E776EE473AF5EEC03AF1EE10FA69
:102B3000CCBF0122002277E70124002A3FF4C1AE76
:102B400049E774EEC54A0122F5EEC04AF1EE10FAEB
:102B50007FF589AE35EEC55A0121B5EEC05AF1EECA
:102B600010FA7FF591AE012797E6DDE912231344B1
:102B700006EE102A1293139B5B421393D8E500BF15
:102B80002DE9F04F87B09DF84850109C2E460195D6
:102B90009DF844509EB399422ED89946A24228D817
:102BA0007F29164694BF0023012308E09CF8348057
:102BB0004EEA080E8CF834E00136B44219D33F2EA9
:102BC000FAD8002BF8D14FEAD60C06F0070E4FF0DA
:102BD000010801EBCC1C08FA0EFE8444002DE5D15F
:102BE0009CF834B001362BEA0E0AB4428CF834A0BB
:102BF000E5D201318945D1D207B0BDE8F08FA3EB12
:102C00000108B8F1000FB8BFC8F100089942C0F040
:102C100054817F2B4FF0FF3A94BF002601263F2AB4
:102C2000009694BF002701270297AEB9A7B9D6082E
:102C300002F0070C012703EBC6160644002D00F036
:102C4000A18107FA0CF796F834C047EA0C0786F81A
:102C50003470002602960096994200F0A5814646FF
:102C600094468E46BEF17F0F16D8BCF13F0F13D8A5
:102C70004FEADC070CF0070B4FF001090EEBC7170A
:102C80000744002D00F03E8109FA0BF997F834B0A3
:102C900049EA0B0987F83490770018BFD644B84545
:102CA00002DD46440CF1FF3C7345DBD16245D9D1CE
:102CB00000260496A4EB0209009FB9F1000FB8BFEB
:102CC000C9F100093F2C94BF00260126A242C9F198
:102CD00000080396C0F02881002F40F05E81002E8E
:102CE00040F05B814FF0FF360096E60803EBC61616
:102CF0000644002D00F024814FF0010C04F007077A
:102D00000CFA07F796F834C047EA0C0786F83470D7
:102D100000260396A24200F04A81C44616461F468A
:102D200005927F2F15D83F2E13D84FEAD60E06F006
:102D3000070B4FF0010A07EBCE1E8644002D00F072
:102D4000EA800AFA0BFA9EF834B04AEA0B0A8EF8C7
:102D500034A0B8EB4C0F4FEA4C0E02DAACEB090C86
:102D6000013FBEF1000F01D0009A1644BB42D8D1FA
:102D7000B442D6D1059AA1EB030EBEF1000FB8BF45
:102D8000CEF1000E7F2994BF4FF0000A4FF0010AE8
:102D900099428CBF4FF001094FF0FF39BAF1000F93
:102DA00014D1039E96B9E60801EBC6160644002D21
:102DB00000F0DC804FF0010C04F007070CFA07F775
:102DC00096F834C047EA0C0786F83470049E26BB98
:102DD000774626467F2B14D83F2E12D84FEAD60CC2
:102DE00006F0070B4FF0010803EBCC1C8444002DC8
:102DF00076D008FA0BF89CF834B048EA0B088CF847
:102E000034805FEA470C18BF4B44E64501DD774448
:102E1000013E9942DED1B442DCD1A2EB040EBEF1F8
:102E2000000FB8BFCEF1000EA2428CBF4FF00108D8
:102E30004FF0FF38CEF1000CBAF1000F11D1029B18
:102E40007BB9D30802F00707012601EBC313034443
:102E5000002D00F08280BE4093F834703E4383F82A
:102E60003460019B002B7FF4C7AE66460B467F2B78
:102E700012D83F2C10D8E70804F0070A4FF00109D8
:102E800003EBC7170744A5B309FA0AF997F834A06A
:102E900049EA0A0987F83490BCEB460F4FEA460727
:102EA00002DAA6EB0E06013B07B144449942DED19B
:102EB000A242DCD107B0BDE8F08F3F2A4FF0010AF3
:102EC00094BF002601267F2B029694BF002701277E
:102ED0000097002E7FF4C3AE002F3FF4A8AEBEE6ED
:102EE00008FA0BFB9CF8348028EA0B088CF8348035
:102EF00087E709FA0AFA97F8349029EA0A0987F865
:102F00003490C9E709FA0BFB97F8349029EA0B09CA
:102F100087F83490C0E60AFA0BFB9EF834A02AEA40
:102F20000B0A8EF834A014E7002F3AD1CEBB01264D
:102F30000096E60803EBC6160644002D7FF4DCAECF
:102F4000012704F0070C039507FA0CFC96F834707F
:102F500027EA0C0786F83470DCE606FA07F793F8E0
:102F6000346026EA070683F834607AE7012704F024
:102F7000070C07FA0CFC96F8347027EA0C0786F861
:102F8000347023E707FA0CFC96F83470029527EAB0
:102F90000C07009586F834705EE64FF0FF36009619
:102FA000B8E601260096B8E60126049682E60126D8
:102FB0000196E0E60000000084B02DE9F0432DED1D
:102FC000028B89B008EE101A12AC84E80F00EFF300
:102FD000108872B6B8EEC88A14AC0DF152097A4E58
:102FE0007A4FB7EEC88A14F8013B0022306807EE2A
:102FF000103A774905680023B8EE477B00978DEDBE
:10300000048B8DED027B2D6DA847A145EBD19DF87A
:103010004830082B1CD8DFE803F0263C587490A3F6
:10302000B61B05009DF8D430072B00F2C380694A17
:1030300002EB830393ED007AB7EEC77A3068002283
:103040000023016800978DED027B0C6D6249A0475B
:10305000B8F1000F00D162B609B0BDEC028BBDE83B
:10306000F04304B070479DF85040002230680023C0
:1030700007EE104A594C0168B8EE477B00948DED7D
:10308000068BCDE904238DED027B0C6D5449A047DE
:10309000DEE79DF85130306806EE103A9DF850306A
:1030A0004E4A07EE103AB8EE466B0368B8EE477B1F
:1030B00000924B4900228DED068B8DED046B8DED5A
:1030C000027B1C6D0023A047C2E79DF8503030689A
:1030D00006EE103A9DF85130404A07EE103AB8EE2D
:1030E000466B0368B8EE477B00923E4900228DEDA7
:1030F000068B8DED046B8DED027B1C6D0023A047CC
:10310000A6E79DF85030306806EE103A9DF8513031
:10311000324A07EE103AB8EE466B0368B8EE477BCA
:103120000092314900228DED068B8DED046B8DED03
:10313000027B1C6D0023A0478AE79DF850300022D7
:10314000306807EE103A00230168B8EE477B00971D
:103150008DED048B8DED027B0C6D2449A04777E744
:103160009DF850300022306807EE103A00230168C5
:10317000B8EE477B00978DED048B8DED027B0C6DD7
:103180001B49A04764E79DF851209DF850303068F6
:1031900043EAC2130022016807EE903A0097002329
:1031A000B8EEE77B8DED048B8DED027B0C6D114944
:1031B000A0474DE79FED027B40E700BFAFF30080E3
:1031C000000000000000000058B3002434C10108D2
:1031D000BE3196147CC10108CF0BFF6F38C10108C6
:1031E000A37CE367590F53BC9C0FBE413DA01E2E2C
:1031F000BD253955F7F083300346BA4A0846934255
:1032000030B52DED028B85B000F07A8100F295800B
:10321000B54A934200F0DE80B44A93423DD100218A
:10322000009000F099FFB0EE408A0121009800F074
:1032300093FF0DF10C0CFCEEC87A0DF10E0EAC4BA9
:1032400017EE901AFCEEC07A8DF80D1017EE902A4A
:1032500002F00F0262F03F028DF80C205868D3E9AB
:1032600002128A1A01F1010448BF12180138904273
:103270000BD01A689CF800009C605054D3E90112EE
:103280008A42A2EB010228BF9A600CF1010CE645CC
:10329000E4D105B0BDEC028B30BD964A9342F8D123
:1032A0000021009000F058FFFCEEC07A0098012148
:1032B000CDED007A01909DF8005000F04DFFFCEE3E
:1032C000C07A02210198CDED007A9DF8004000F00F
:1032D00043FFFCEEC07A17EE903A03F00F03002C88
:1032E00075D143F080038DF80C300DF10C0C0DF10D
:1032F0000F0E7F4B8DF80D508DF80E405868D3E9B6
:1033000002128A1A01F1010448BF121801389042D2
:103310000BD01A689CF800009C605054D3E901124D
:103320008A42A2EB010228BF9A600CF1010CE6452B
:10333000E4D105B0BDEC028B30BD6F4A934200F082
:1033400087806E4A9342A4D10021009000F004FFD0
:10335000BCEEC00A0121009810EE103A9CB200F0B9
:10336000FBFEFCEEC07A04F07F030DF10C0CC4F3FD
:10337000C6140DF10F0E17EE902A8DF80D305C4B30
:1033800002F00F028DF80E4062F01F028DF80C2043
:103390005868D3E902128A1A01F1010448BF1218D1
:1033A000013882420BD01A689CF800009C6050548F
:1033B000D3E901128A42A2EB010228BF9A600CF104
:1033C000010CE645E4D105B0BDEC028B30BD43F005
:1033D000900388E70021009000F0BEFEB0EE408A26
:1033E0000121009800F0B8FE0DF10C0CFCEEC87A3B
:1033F0000DF10E0E3E4B17EE901AFCEEC07A8DF8D2
:103400000D1017EE902A02F00F0262F02F028DF8D5
:103410000C205868D3E902128A1A01F1010448BF4E
:103420001218013890420BD01A689CF800009C607A
:103430005054D3E901128A42A2EB010228BF9A60DC
:103440000CF1010CE645E4D105B0BDEC028B30BDBA
:103450000021009000F080FEF0EE408A01210098EB
:1034600000F07AFE02210098B0EE408A00F074FE6F
:10347000FCEEE87A0DF10C0C0DF10F0E17EE901A20
:10348000FCEEC87A8DF80E1017EE902AFCEEC07A8A
:103490008DF80D2017EE903A03F00F0363F04F0301
:1034A0008DF80C30124B5868D3E902128A1A01F1D8
:1034B000010448BF1218013890420BD01A689CF8DA
:1034C00000009C605054D3E901128A42A2EB010231
:1034D00028BF9A600CF1010CE645E4D105B0BDECC3
:1034E000028B30BDD1A9ACD587436D479EE353878E
:1034F0005CB30024C24A1D0D40A0E2E5138045E8FC
:103500000021009000F028FEF0EE408A0121009892
:1035100000F022FE02210098B0EE408A00F01CFE6E
:10352000FCEEE87A0DF10C0C0DF10F0E17EE901A6F
:10353000FCEEC87A8DF80E1017EE902AFCEEC07AD9
:103540008DF80D2017EE903A03F00F0363F05F0340
:103550008DF80C300F4B5868D3E902128A1A01F12A
:10356000010448BF1218013890420BD01A689CF829
:1035700000009C605054D3E901128A42A2EB010280
:1035800028BF9A600CF1010CE645E4D105B0BDEC12
:10359000028B30BD5CB3002410461946FFF72CBEE9
:1035A00084B02DE9F04184B0002400F1180600F148
:1035B00004080BAF0546304687E80E0023461599F0
:1035C0000122009403F028F923460122BDF8561089
:1035D0004046009403F020F93946284605F03EFDA8
:1035E0002146404603F00AFA0A2007F097F9012124
:1035F000404603F003FA0A2007F090F9AE23214673
:1036000030468DF80F3003F0F9F901220DF10F016A
:103610006423284605F0AAFDD523214630468DF8BF
:103620000F3003F0EBF901220DF10F01642328465E
:1036300005F09CFD8023214630468DF80F3003F0C5
:10364000DDF901220DF10F016423284605F08EFDFE
:10365000A823214630468DF80F3003F0CFF9012220
:103660000DF10F016423284605F080FD3F2321461C
:1036700030468DF80F3003F0C1F901220DF10F0132
:103680006423284605F072FDDA23214630468DF882
:103690000F3003F0B3F901220DF10F016423284626
:1036A00005F064FD1223214630468DF80F3003F0FB
:1036B000A5F901220DF10F016423284605F056FDFE
:1036C000D323214630468DF80F3003F097F9642359
:1036D00001220DF10F01284605F048FD2146304634
:1036E0008DF80F4003F08AF901220DF10F016423D8
:1036F000284605F03BFD4023214630468DF80F302B
:1037000003F07CF901220DF10F016423284605F036
:103710002DFDA623214630468DF80F3003F06EF9BB
:1037200001220DF10F016423284605F01FFDA4239B
:10373000214630468DF80F3003F060F901220DF17B
:103740000F016423284605F011FD8D2321463046E4
:103750008DF80F3003F052F901220DF10F016423AF
:10376000284605F003FD1423214630468DF80F301E
:1037700003F044F901220DF10F016423284605F0FE
:10378000F5FCA123214630468DF80F3003F036F9C1
:1037900001220DF10F016423284605F0E7FCC82340
:1037A000214630468DF80F3003F028F901220DF143
:1037B0000F016423284605F0D9FC812321463046B9
:1037C0008DF80F3003F01AF901220DF10F01642377
:1037D000284605F0CBFC8F23214630468DF80F306C
:1037E00003F00CF901220DF10F016423284605F0C6
:1037F000BDFCD923214630468DF80F3003F0FEF88A
:1038000001220DF10F016423284605F0AFFC2523AA
:10381000214630468DF80F3003F0F0F801220DF10B
:103820000F016423284605F0A1FCDB232146304626
:103830008DF80F3003F0E2F801220DF10F0164233F
:10384000284605F093FC3423214630468DF80F308E
:1038500003F0D4F801220DF10F016423284605F08E
:1038600085FCAF23214630468DF80F3003F0C6F8B3
:10387000642301220DF10F01284605F077FC04B006
:10388000BDE8F04104B070472DE9F04F0446A3B005
:1038900000270B9100F08EFC0B99204600F084FD70
:1038A0000D2000F089FC0346012204F5A270ADF85A
:1038B000303004F174050C9904F1180A02F006F88E
:1038C0000C2000F079FC0346012204F5AE70ADF83F
:1038D000343004F5E8760D990DF1580801F0F6FF43
:1038E0000B2000F069FC0346012204F5BA70ADF824
:1038F000383004F5FE7B0E9901F0E8FF052000F05A
:103900005BFC03460420D946ADF83C3000F054FC83
:1039100003460320ADF8403000F04EFC034620463D
:10392000ADF8443000F07EFC0F9904F1E800DDE9C9
:10393000102301F05FFF102000F03EFCADF84800BE
:1039400002222846129902F047FA0423012229464E
:103950005046B02502F050FA0021504602F06AFCB1
:10396000014620460B9100F05DFC0023DFED4C0A80
:103970000B9904F1C8001A4601F0BAFE092000F0C4
:103980001BFCADF84C003B460122139904F5C670B0
:10399000009702F041FF0E2000F00EFCADF8500041
:1039A0003B460122149904F5D070009702F034FFD1
:1039B0000A2000F001FCADF854003B4604F5DA7033
:1039C00001221599009704F5F47402F025FF0223F3
:1039D000344A0DF1640E3449EC46209201221897C6
:1039E000169119971C971D971A928DF88470CDE93E
:1039F0001E332E4B179308231B93BEE80F00ACE831
:103A00000F00BEE80F00ACE80F00DEF800303046D3
:103A1000CCF8003098E80E00FFF7C2FD3946584652
:103A20004FF4806214F0A4FE002720468DF8585011
:103A30000135394602F0E2FF642301224146304657
:103A4000EDB205F093FB394620468DF8587002F030
:103A5000D5FF012264234146304605F087FB102341
:103A6000394620468DF8583002F0C8FF6423012201
:103A70004146304605F07AFB0121204602F0BEFFA8
:103A80008022494664233046914405F06FFBB82DEF
:103A9000CAD1504623B0BDE8F04F02F0B5BB00BF1D
:103AA0006F12033B0104010F060B0B000105060A10
:103AB0002DE9F04FB04CADF5177D0121DFF8E4B2F0
:103AC000204622AFFFF7E0FE882014F086FB022399
:103AD00005460A211A463AAE9FEDA50B00F032FBCF
:103AE00003212046CBF8005000F080FB204600F078
:103AF00099FB04F1C80001F051FE204600F092FB52
:103B0000384601F0B3FF01234EAD4FF0000E749321
:103B1000779347F61223CDF8D4E178930223769376
:103B200097E80F0086E80F0004F2FC5686E80F00C5
:103B300004F2FC53D4F80466D4F808760FCB85E879
:103B40000F00AB887390C4F81066C4F81476ADF813
:103B5000CA31EB88ADF8C83127B13A4671463046D4
:103B600014F006FE854E72A9844806F09DFB06F10E
:103B7000140002F045F8A6F1100314213046C4F8F1
:103B800018367F4BDFF82092C4F81C3606F0E8FDAB
:103B9000D4F8142630467B4BD4F81016009606F065
:103BA000EDFB7949A6F20C6000F01CFB002001F04F
:103BB00027FFDBF80000754903689B6B984706F008
:103BC000ABFE06F0A9FE8046DBF8000070490368F2
:103BD0001B6B984706F0A0FE8246DBF80000EFF36F
:103BE000108772B628B1036894ED350A5B6D694998
:103BF000984707B962B6614806F04AFC002800F011
:103C00009C80D4F8C8769022D4F8C41672A807EB2A
:103C1000C70CCB1B24D443B38F4200F08880D4F868
:103C2000BC16013701EB0C1114F094FDD4F8C0362A
:103C3000C4F8C87672A99F42A7EB03074FF0900221
:103C4000284628BFC4F8C87614F084FD52A9802203
:103C5000684614F07FFD95E80F00FFF7ADF9D0E757
:103C6000D4F8C0663344002BD6D14B481946D0E96E
:103C700002C3634517D00A4672A9D0E900E701E004
:103C8000802A0CD01EF803000133434E0132BB42A0
:103C900001F8010B28BFDB1B6345F360F0D172A96B
:103CA000364806F0F9FBAAEB0803052B92D9D9E9AF
:103CB0000237BB4259D0D9F8003007EB87084122C0
:103CC00000213DA84FEA0816219303EB081814F0D1
:103CD0004FFD219BD8F808109B59402B1A461E46D1
:103CE00028BF4022904613B13DA814F033FD0137A0
:103CF000D9F804309F42C9F80C7002D3FF1AC9F8F2
:103D00000C7029AB4122002129A828934023279336
:103D100014F02EFDCDF8988026B142463DA929A881
:103D200014F018FD29A8D04601F05CFE52E790225D
:103D30000021284614F01CFD88E7184801F060FFB8
:103D4000174B14210D48C4F818360D4BC4F81C3617
:103D500006F006FD094BD4F814260093D4F810168B
:103D6000084B064806F00AFB4BE7D04632E700BF97
:103D7000000000000070E740FC1B00240822002423
:103D80000D1C0008011C0008711D0008811C0008A2
:103D900099350008C4B27C475CB300241C2200247F
:103DA000F821002458B300249C07002470B5002299
:103DB0005B4C6FF0F4104FF60B7123466261226288
:103DC000C4F88020C4E90020C4E9020004F13C00EA
:103DD000C4E90A12C4E90C22C4E90F12C4E9112291
:103DE000C4E91612C4E91822C4E91C21C4E91E2240
:103DF000143300250B21FF2283429D6783F8741042
:103E000083F87520C3E91F55F2D14FF60B73454A6D
:103E1000C4F82051C4F81431C4F82831C4F844312E
:103E2000C4F85C31C4F87431C4F88C31A4F8A03102
:103E3000C4F83451C4F85051C4F86851C4F88051E2
:103E4000C4F89851C4F8AC513748384EC4E93E35EF
:103E5000C4E94055C4E94655C4E94B55C4E9525537
:103E6000C4E95855C4E95E55C4E96455C4E96955C7
:103E7000C4E96D35C4F8C821C4F8E051C4E97453ED
:103E8000C4E97A35C4E96F55C4E97655C4E97C556F
:103E900001F0ECFD40F20F732548A4F8B83640F26B
:103EA0000113244AC4F8BC06A0F2CC60C4F8B426BE
:103EB000C4F8C036204A2149C4F80C56C4F8C45688
:103EC000C4F8C85614F082F91D4B412103F11002C9
:103ED00003F11C04DD601A60C3E9011500254023CD
:103EE000204644F8044C4122294644E90353503407
:103EF00014F03EFCB442F1D10F4A1249104814F0BC
:103F000065F9114881210C4A00F11003C560C0E930
:103F1000011503600D49BDE8704014F057B900BFAA
:103F2000FC1B002444C10108F8210024081C0024C3
:103F3000C82200240080707F00000024D91B0008E4
:103F40009C070024DD1B00085CB30024E11B000873
:103F5000004870479CC1010800207047002070474E
:103F60000020704710B404680022246C1146A44657
:103F70005DF8044B604700BF034B10B50446036077
:103F8000FDF70CFE204610BD8CC20108054B10B594
:103F900004460360FDF702FE8821204614F01BF959
:103FA000204610BD8CC201081146014AFCF72EBD07
:103FB000A8C101084AB151B1002300210E48516047
:103FC00011721060D36013615361012070474FF08C
:103FD0007E504FF07C534FF0000C11720749106176
:103FE0000120C2F80CC05160536110B4044C14603D
:103FF0005DF8044B704700BFB8C10108C4B27C47EC
:10400000B0C10108054B9446994200D07047044B5B
:10401000002261461830FDF7DFB800BFC4B27C470C
:10402000A93F00082DE9F041054682B0984600F10D
:104030005C0405E02B4B99421CD02046FCF78AFD1E
:104040002046FCF727FDE8B1002701A9204601978B
:10405000FCF77AFD019B8446132B3DD92A68224B3D
:10406000D2F890605CF8041B9E42E3D0624628467A
:10407000B047E2E71D4B3A46614605F11800FDF7EF
:10408000ABF8DAE72B68284619499B6D9847B8F1D9
:10409000000F2C691ADD08EB0406AB69013473B11B
:1040A0009A6811688C420AD92846D3E903319847A7
:1040B00005F11800FDF7DAF8AB69002BF0D1B44236
:1040C000ECD140462E6102B0BDE8F0812646404664
:1040D0002E6102B0BDE8F081064BA421064A0748D4
:1040E00014F0B8FAC4B27C4705400008A93F0008A4
:1040F000EBC021DDFCBC0108D0C1010810C20108E1
:1041000010B58BB101680B4A4C6C94424FF0000221
:1041100005D10C6C1146A446BDE810406047A4468A
:104120001146BDE810406047034BDC21034A0448B8
:1041300014F090FA653F000828C2010834C2010853
:1041400010C2010810B50446FDF7BEFC014B204625
:10415000236010BD8CC2010808B58388994204DA37
:1041600000EBC10090ED030A08BD034B7921034A1F
:10417000034814F06FFA00BF84B6010880C3010839
:1041800078B6010838B102680649D26B8A4201D17B
:10419000406D70471047044B9C21044A044810B5F9
:1041A00014F058FA9D14000820C30108ACC301089C
:1041B00074C30108704700BF202882B009D8084B9B
:1041C00003EB400213F81030507843EA002002B0AD
:1041D000704701230C2043EA002002B0704700BF63
:1041E00024C40108143001F04FBA00BF38B500F103
:1041F000140504462DED028B284601F0F1F92846FE
:1042000001F0EAF92846B0EE408A01F0E1F9D0ED7C
:10421000007AF8EE677A88EE277ABDEC028B84ED9F
:104220001B7A38BD90ED1B0A704700BF10B540F2F5
:1042300003338EB000244FF60B7240F20341ADF809
:10424000083009A80123ADF81020ADF8242022463B
:10425000ADF80C100094029907940C94CDE9054434
:10426000CDE90A4402F0D8FA04A8012322460399B2
:10427000009402F0D1FA09A802F0B4FB10B90120B1
:104280000EB010BD04A802F0ADFBA0420CBF02208E
:1042900020460EB010BD00BF2DE9F04103239AB0B7
:1042A0004FF0010800254FF60B740746CDE914388E
:1042B000394BADF84C40CDE91053A3F19F63A3F502
:1042C0007D43CDE916581293FFF7B0FF40450646EF
:1042D00023D0022842D040F60132304B07F158007B
:1042E0000BACADF82C200B991895CDF86480CDF867
:1042F0004A3000F0DBF810A907F1700003F0CCFCA5
:10430000274B0FCB84E80F003A6F214607F11400CA
:1043100001F026F91AB0BDE8F08110231F4A06A962
:1043200006908DF828300BAC1E4BCDF84A20079331
:104330000295CDE91805CDE9080502A802F0E2FCD6
:104340000823029A03A92046ADF80C608DF80E50A0
:10435000049605930B9500F0E9F8CCE740F601339D
:10436000ADF82C4000200BACADF8183001210B4B00
:1043700042460095CDF84A302B460E95CDE91801FE
:1043800006992046CDE90C5502F046FA294620460A
:1043900002F034FBAFE700BF040204040406040388
:1043A00074B501080704010B2DE9F04704462DED13
:1043B000028B82B0002949D0012140F20112002372
:1043C0000091ADF804208DF80630354A0127354BB1
:1043D00004F10409344904F13C08626040F20272BD
:1043E000A36040F60663E16004F1280A2285A387F2
:1043F0002782E762276406F03DFC054606F090FA46
:104400006946064650BB4DB304F150008DF8067066
:1044100006F0B2FB072D3ED104F114052046FFF74C
:104420003BFF284601F0D8F82846B0EE408A01F05C
:10443000CFF8D0ED007AF8EE677A88EE277A84ED2F
:104440001B7A02B0BDEC028BBDE8F08740F201138D
:1044500000918DF80610ADF80430B6E704F1500075
:1044600006F08AFB072D13D04946204603F020F8BA
:104470000EB9002DD0D15146504602F009F8404601
:10448000414602F005F804F1120000F079F9C3E7A3
:10449000002EF0D1C0E74946204603F009F8BBE7FB
:1044A0000508050905070506050A060630B585B0A5
:1044B000002504460122ADF80C102B460399009507
:1044C00002F0AAF90121204602F098FA012006F034
:1044D00025FA2946204602F091FA012006F01EFA3C
:1044E0000121204605B0BDE8304002F087BA00BF88
:1044F00010B5C2F3002384B00C46017C8DF80D206A
:1045000043EA4402FA2402238DF80C2003AA009403
:1045100002F090FC18B10124204604B010BD0446FE
:104520000A2006F0FBF9204604B010BD034670B522
:1045300043F8042B044684B007C983E80700A37935
:1045400083B91A210B461E22FA2523742046ADF8A2
:104550000C20022303AA009502F06CFC28B1012074
:1045600004B070BD1B210B46EDE70A2006F0D6F91A
:104570004FF4B85200950223ADF80C20204603AA50
:10458000217C02F057FC0028E9D10A2006F0C6F988
:1045900041F2027200950223ADF80C20204603AAD6
:1045A000217C02F047FC0028D9D10A2006F0B6F998
:1045B000042200950223ADF80C20204603AA217C9A
:1045C00002F038FC0028CAD10A2006F0A7F906221A
:1045D00000950223ADF80C20204603AA217C02F0AE
:1045E00029FC0028BBD10A2006F098F941F20822E4
:1045F00000950223ADF80C20204603AA217C02F08E
:1046000019FC0028ABD10A20064606F087F9009570
:10461000022303AA217C2046ADF80C6002F00AFCBC
:1046200000289CD1304606F079F9009522790C23B8
:104630002046002A8DF80C3003AA4FF0020314BF65
:10464000622142218DF80D10217C02F0F3FB00283D
:1046500085D1304606F062F92279D4E902310B4364
:10466000DBB20AB943F0400362790AB143F0200398
:104670000E22FA258DF80D302046009502238DF884
:104680000C2003AA217C02F0D5FB00287FF467AF41
:104690000A2006F043F9102200950223ADF80C2001
:1046A000204603AA217C02F0C5FB00287FF457AF07
:1046B0000A2006F033F9122100950223ADF80C1000
:1046C00003AA217C204602F0B5FB00287FF447AF07
:1046D0000A2006F023F9012209212046FFF708FFEE
:1046E000003818BF01203BE7F0B5102387B0234CFA
:1046F000012200250126002702A920460195CDE9C7
:1047000002234FF48052CDE904670EF0BBFF642012
:1047100007F036F802A94FF480522046CDE904672D
:1047200002261027CDE902670EF0ACFF032210230A
:1047300002A92046CDE9022300230422CDE9042367
:104740004FF480520EF09EFF40F23223042202A961
:10475000019310232046CDE90223019A01230592FB
:104760004FF4805204930EF08DFF40F60601204670
:104770000EF0A8FF284607B0F0BD00BFF8B3002434
:104780001C4B00221C494FF0400C30B5054689B047
:104790000220596007219A601A620124DA620A2213
:1047A0004FF4006EDC6006922022CDE90001042067
:1047B0000821CDE9020103201021CDE904010820E0
:1047C0006946C3E904024FF4C072181DC3E906C26A
:1047D0004FF48052C3E909E20EF02AFF38B92846A7
:1047E000FFF782FF003818BF012009B030BD204616
:1047F00009B030BDF4B3002440410052614A0021A9
:10480000D0B513688EB00A91002B40F0B9805E4B92
:1048100001214FF683700C2411600221D3F8D420BB
:104820000026032742F48052C3F8D420D3F8D420C2
:1048300002F480520092009AD3F8E02042F0100275
:10484000C3F8E020D3F8E02002F010020192019AB0
:10485000D3F8E02042F04002C3F8E020D3F8E02093
:1048600002F040020292029AD3F8E02042F00802DD
:10487000C3F8E020D3F8E02002F008020392039A84
:10488000D3F8E02042F48072C3F8E020D3F8E020AF
:1048900002F480720492049AD3F8E02042F080027D
:1048A000C3F8E020D3F8E02002F080020592059AD8
:1048B000D3F8E02042F02002C3F8E020D3F8E02053
:1048C00002F020020692069AD3F8E02042F0040299
:1048D000C3F8E020D3F8E0300C9403F0040307930E
:1048E0000323079A0B93CDE9080108A9274809F08B
:1048F000DBF848F23712022308A925480C94CDE9C9
:104900000823CDE90A6709F0CFF84CF203720223BD
:1049100008A920480C94CDE90823CDE90A6709F0DD
:10492000C3F840F2FF62022308A91B480C94CDE9AA
:104930000823CDE90A6709F0B7F84FF60C72022395
:1049400008A916480C94CDE90823CDE90A6709F0B7
:10495000ABF84FF63F02022308A911480C94CDE9A9
:104960000823CDE90A6709F09FF82022022308A94D
:104970000A480C94CDE90A67CDE9082309F094F8B8
:104980000EB0D0BDF0B3002400440258001002580D
:1049900000180258000C025800200258001C02584F
:1049A000001402582DE9F04FDFF8108406460D463A
:1049B000144608F118002DED028B89B000AF03F00A
:1049C00063FAD8F8183073B3D8F81C30D8F80490CC
:1049D000002B43690BBF4FF0080A4FF0100A4FF04D
:1049E000020B4FF0040BB9F1000F2AD0A200EA46E7
:1049F000012B02F1070222F00702ADEB020D68461F
:104A0000ADEB020D694600F03F81022B00F0D6802D
:104A1000002B6FD02246C847D5462437BD46BDEC93
:104A2000028BBDE8F08FD8F81C30002BF5D0D8F8F9
:104A300004904FF0080A4FF0020B4369B9F1000FE0
:104A4000D4D1FB61D8F80030BB61002BE5D0D5484C
:104A500003F08CFA6B46BBF1020F786108EE103A56
:104A6000FB6900F083816A465146A2EBC402954679
:104A70006200EA46B2FBFBF2AAEBC40085460AEBF1
:104A80008200EE46F861ADEB010DF8690EEB820C89
:104A9000C7F810C0EC46ADEB010D00EB8201CCF87D
:104AA0000400CCF8081001EB82013869E946CCF823
:104AB0000C1000EB8201CCF800A001EB8202C9E9E6
:104AC00000E0C9E90212012B00F06483022B00F020
:104AD0006C82002B00F08081620849466046BB6909
:104AE000984718EE103A24379D46BD46BDEC028B20
:104AF000BDE8F08F002C8DD01A46D8ED0C6A9FEDE2
:104B0000B27A8446331D36F922E00CF1080C07EE28
:104B100090EA33F922E00232F8EEE77A944267EE47
:104B2000877A67EEA67A4CED027A07EE90EAF8EE05
:104B3000E77A67EE877A67EEA67A4CED017AE2D8DB
:104B4000F9612246C847984ED8ED0D6A0020F969F0
:104B50002B1D9FED9E7A9FED9E6ADFED9E5A22E00F
:104B6000F4EEC67AF1EE10FAC0F2C88447F6FE728F
:104B7000D1ED017A45F8202066EEA77AF4EEC77AE7
:104B8000F1EE10FA40F2F080F4EEC67AF1EE10FA8F
:104B9000C0F2D58447F6FE7243F820200230083177
:104BA00084427FF639AFD1ED007A66EEA77AF4EE53
:104BB000C77AF1EE10FAD3D83246D9E7002C3FF489
:104BC00029AFD8ED0C6A84469FED787A0022331D18
:104BD0008E4656F822100CF1080C07EE901A53F886
:104BE00022100232F8EEE77A944267EE877A67EE97
:104BF000A67A4CED027A07EE901AF8EEE77A67EEA5
:104C0000877A67EEA67A4CED017AE2D871462246A1
:104C1000C7F81CE0C847664ED8ED0D6A0020F96958
:104C20002B1D9FED6A7A9FED6A6ADFF894C120E040
:104C3000F4EEC67AF1EE10FAC0F279843246D1ED84
:104C4000017A45F8202066EEA77AF4EEC77AF1EEF5
:104C500010FA40F28780F4EEC67AF1EE10FAC0F254
:104C60005E84324643F820200230083184427FF6C9
:104C7000D3AED1ED007A66EEA77AF4EEC77AF1EE04
:104C800010FAD5D86246DAE7002C3FF4C3AED8ED6F
:104C90000C6A86469FED477A4FF0000C331D56F89C
:104CA0002C200EF1080E82F40002A2F5000207EE9D
:104CB000902A53F82C200CF1020CF8EEE77A82F4DB
:104CC00000026445A2F5000267EE877A67EEA67AD5
:104CD0004EED027A07EE902AF8EEE77A67EE877AD1
:104CE00067EEA67A4EED017AD9D8F9612246C84717
:104CF000314ED8ED0D6A0020F9692B1D9FED337AF6
:104D00009FED336ADFF8BCC01FE0F4EEC67AF1EE27
:104D100010FAC0F2FC833246D1ED017A45F820202A
:104D200066EEA77AF4EEC77AF1EE10FA18D9F4EE2F
:104D3000C67AF1EE10FAC0F2DA83324643F8202048
:104D40000230083184427FF667AED1ED007A66EE1C
:104D5000A77AF4EEC77AF1EE10FAD6D86246DBE70E
:104D60006246EBE762467DE7324615E7A100D6468C
:104D70006208073121F00701ADEB010DEA46ADEB0A
:104D8000010D6946ADEB0E0D0AEB8200EC46ADEB72
:104D90000E0D01EB8202F861E946CCE900A0C9E9F9
:104DA000001290E648B400240280FFFF00000030AB
:104DB0000082FF7F0000003482FF7F002CB40024BB
:104DC000007E00807E0080FF0000003804FF7FBF6F
:104DD00004FF7F3F00FEFF46002C00F0C982BBF1BC
:104DE000020FD8F8242000F0FA827969C7F80490FD
:104DF00002EB810E5FED0C5A8A00DCF808100EF110
:104E000004007A611A46DCF80C303B61331DD7F898
:104E100010903D61FD69C7E902CB8C46834636F9A7
:104E20002210D8ED0C7A06EE101A33F9221006EE95
:104E3000901A3EF92210B8EEC66A07EE101AF8EE84
:104E4000E66A3BF92210B8EEC77A26EE256A66EECE
:104E5000A56A27EE257A26EE276A66EEA76A27EE70
:104E6000277A07EE901A51080232F8EEE77A0AEB39
:104E70008100944280ED006A05EB810067EEA57A1F
:104E8000C0ED006A0CEB810009EB810180ED007A36
:104E900098ED0C7A67EE877AC1ED007ABFD8D7F823
:104EA00004903D69D7E902CB60466208BB69494678
:104EB0009847D8F82C307A69D8ED0D6A1A441FED5E
:104EC0003D7A1FED3D6A2B1D904602F1040A5FED0D
:104ED0003F5A0022A84ED9E900EC51E0F4EEC67A20
:104EE000F1EE10FAC0F2C78247F6FE7045F82200D4
:104EF0000CEB0100D0ED007A66EEA77AF4EEC77AEB
:104F0000F1EE10FA4BD9F4EEC67AF1EE10FAC0F2D7
:104F1000BA8247F6FE70BBF1020F43F822002BD095
:104F2000D9F808000844D0ED007A66EEA77AF4EECE
:104F3000C77AF1EE10FA36D9F4EEC67AF1EE10FA2D
:104F4000C0F2CD8247F6FE7048F82200D9F80C0076
:104F50000144D1ED007A66EEA77AF4EEC77AF1EE5D
:104F600010FA1ED9F4EEC67AF1EE10FAC0F2AF8252
:104F700047F6FE714AF82210023294427FF6B1AD34
:104F800051080EEB81008900D0ED007A66EEA77A19
:104F9000F4EEC77AF1EE10FAA0D83046A6E7304614
:104FA000B9E73146E6E73046CEE7002C00F0E08175
:104FB000BBF1020FD8F8243000F0E1817A69DCF807
:104FC000081003EB820EC7F804909300DFED6B5AD4
:104FD0000EF1040000227B61DCF80C303B61331DD4
:104FE000D7F810903D61FD69C7E902CB8C46834636
:104FF00056F82210D8ED0C7A07EE101A53F822104A
:10500000B8EEC76A07EE101A5EF82210F8EEC76A0B
:1050100007EE101A26EE256A5BF82210B8EEC77A62
:1050200066EEA56A26EE276A27EE257A66EEA76A5F
:1050300027EE277A07EE901A51080232F8EEE77A47
:105040000AEB8100944280ED006A05EB810067EE77
:10505000A57AC0ED006A0CEB810009EB810180EDBF
:10506000007A98ED0C7A67EE877AC1ED007ABFD8A6
:10507000D7F804903D69D7E902CB60466208BB6966
:1050800049469847D8F82C307A69D8ED0D6A1A4409
:105090009FED3E7A9FED3E6A131D9246DFF8E4C015
:1050A0000022FB612B1D364ED9E9008E4EE0F4EE56
:1050B000C67AF1EE10FAC0F2FC81304645F82200C3
:1050C0000EEB0100D0ED007A66EEA77AF4EEC77A17
:1050D000F1EE10FA49D9F4EEC67AF1EE10FAC0F208
:1050E000EF813046BBF1020F43F822002AD0D9F8F5
:1050F00008000844D0ED007A66EEA77AF4EEC77A8D
:10510000F1EE10FA35D9F4EEC67AF1EE10FAC0F2EB
:10511000C98130464AF82200D9F80C000144D1ED8B
:10512000007A66EEA77AF4EEC77AF1EE10FA1ED98D
:10513000F4EEC67AF1EE10FAC0F2AD813146F869AC
:1051400040F82210023294427FF6CBAC510808EBB3
:1051500081008900D0ED007A66EEA77AF4EEC77A76
:10516000F1EE10FAA3D86046A8E76046BAE76146B8
:10517000E5E76046CEE700BF0280FFFF0000003099
:105180000082FF7F007E00800000003404FF7FBFAC
:1051900004FF7F3F002C00F0EB807A690021D8F8F3
:1051A0002430C7F8109003EB820ED7F81C909300C0
:1051B000FD610EF104021FED0C6A7B61331D154683
:1051C00056F821204808D8ED0C6ABBF1020F82F492
:1051D0000002A2F5000207EE902A53F8212082F483
:1051E0000002B8EEE77AA2F5000227EE067A07EE93
:1051F000902A0AEB8002F8EEE77A27EE267A67EE2D
:10520000867A82ED007A09EB80024FEA800067EE31
:10521000A67AC2ED007A27D05EF8212082F400023F
:10522000A2F5000207EE902A55F8212082F4000230
:10523000B8EEE77AA2F5000227EE067A07EE902A8A
:10524000DCF80820F8EEE77A024427EE267A67EECB
:10525000867A82ED007A98ED0C7ADCF80C2067EE05
:10526000877A0244C2ED007A02318C42A8D8D7F87E
:10527000109060466208BB694946FD699847D8F8B6
:105280002C307A69D8ED0D6A1A441FED407A1FED73
:10529000406A131D9246DFF8C4C20022FB612B1D39
:1052A000AB4ED9E9008E4EE0F4EEC67AF1EE10FA7C
:1052B000C0F2C580304645F822000EEB0100D0ED6B
:1052C000007A66EEA77AF4EEC77AF1EE10FA49D9C1
:1052D000F4EEC67AF1EE10FAC0F2BF803046BBF1B0
:1052E000020F43F822002AD0D9F808000844D0ED74
:1052F000007A66EEA77AF4EEC77AF1EE10FA35D9A5
:10530000F4EEC67AF1EE10FAC0F2AE8030464AF8FA
:105310002200D9F80C000144D1ED007A66EEA77A9C
:10532000F4EEC77AF1EE10FA1ED9F4EEC67AF1EE79
:1053300010FAC0F28B803146F86940F82210023230
:1053400094427FF6CEAB510808EB81008900D0ED86
:10535000007A66EEA77AF4EEC77AF1EE10FAA3D8D7
:105360006046A8E76046BAE76146E5E76046CEE7F3
:10537000224649466046BB699847FFF7B2BBC7F86B
:1053800010B0002298ED0C6A331DDFED726AD7F879
:105390001CB0786956F8221007EE901A53F82210C4
:1053A000B8EEE77A07EE901A51080232F8EEE77A83
:1053B00027EE267A0AEB810E94420BEB810167EE11
:1053C000A67A27EE067A67EE867A8EED007AC1ED30
:1053D000007ADFD88300D7F810B07B614DE61A461B
:1053E000C7F810B098ED0C6A331DDFED5B6AD7F893
:1053F0001CB0786936F9221007EE101A33F9221022
:1054000007EE901AB8EEC77A51080232F8EEE77A42
:1054100027EE267A0AEB810E94420BEB810167EEB0
:10542000A67A27EE067A67EE867A8EED007AC1EDCF
:10543000007ADFD88300D7F810B07B6134E5F0EE56
:10544000675AFEEEE45A15EE900A34E7F0EE675A1A
:10545000FEEEE45A15EE901A6EE7F0EE675AFEEE95
:10546000E45A15EE900A3AE7F0EE675AFEEEE45A77
:1054700015EE900A4BE767EEA57AFDEEE77A17EE98
:10548000900A00B232E567EEA57AFDEEE77A17EEF4
:10549000900A00B23FE5F0EE675AFEEEE05A15EED4
:1054A000901A4CE6F0EE675AFEEEE05A15EE900ABE
:1054B00030E6F0EE675AFEEEE05A15EE900AFDE592
:1054C000F0EE675AFEEEE05A15EE900A0AE667EE35
:1054D000A57AFDEEE77A17EE901A09B24AE567EE73
:1054E000A57AFDEEE77A17EE900A00B22CE5F0EE11
:1054F000675AFEEEE45A15EE902A1FE467EEA57A8D
:10550000FDEEE77A17EE902A12B2FFF731BBF0EE0C
:10551000675AFEEEE45A15EE902AFFF7FDBBF0EE57
:10552000675AFEEEE05A15EE902AFFF79BBBF0EEAD
:10553000675AFEEEE05A15EE902AFFF780BB67EE41
:10554000A57AFDEEE77A17EE902A12B2FFF724BB98
:1055500082FF7F0000000030000000387E0080FFE6
:1055600030B5184C154685B0046004F1080EEC46C1
:105570000FC98EE80F00D4ED047AF5EEC07A8CE8FE
:105580000F00F1EE10FA1ADDB7EE006A94ED057A1D
:1055900027EE277AC6EE276A84ED0D7AC4ED0C6AF1
:1055A0006DB1204640F8185F02F06EFC06490369B1
:1055B0000020064A2162A262E36005B030BD0120EE
:1055C00005B030BD2CB400240020003000000030B5
:1055D00000680830704700BF0068183002F0B4BCA3
:1055E00070B504688AB0A369E1600BB304F11805D3
:1055F0006FF0F4134FF60B722846ADF80C20CDE98E
:10560000013302F041FC8446EE46E668BCE80F0038
:10561000AEE80F00BCE80F00AEE80F009CE8030006
:105620008EE8030069462846049602F035FB38BB35
:10563000E06918B304F11C056FF0F4134FF60B7218
:105640002846ADF80C20CDE9013302F01DFC84465C
:10565000EE46E468BCE80F00AEE80F00BCE80F00BF
:10566000AEE80F009CE803008EE803006946284678
:10567000049402F011FB003818BF01200AB070BD7D
:1056800001200AB070BD00BF30B5046883B00D467C
:10569000E3694BB1A3680020E26A616A9B00009055
:1056A00004F11C0002F0F2FBA3680748A26A9B0009
:1056B000216A009004F1180002F0E8FB0020C4E920
:1056C000005003B030BD00BFA549000810B4074B1F
:1056D0004FF07E5130240022032019619C60D86075
:1056E0005DF8044B5961C3E9062270472CB40024CD
:1056F000F6EE007A9FED166A20EE207A0160F7EE52
:10570000006A80ED036A80ED020A27EE277AC6EE72
:10571000877AF4EEE67AF1EE10FA11DDF0EE667AB1
:105720004FF07E514FF0000C02760022C0ED017A5E
:10573000C0F814C0016143768276C0ED070A704755
:10574000F4EEC67AF1EE10FAEAD5F0EE467AE7E723
:10575000000000000268037E128807EE902AFBEE2C
:10576000C87A1BB1B7EE007A77EE677AD0ED056A9A
:1057700090ED047A77EEE67A437E67EE877A0BB196
:10578000F1EE677A90ED030A90ED017A77EEC07A38
:10579000A7EE270A80ED030A704700BF837E80EDE5
:1057A000020AABB9D0ED077A27EE800AF6EE007A4E
:1057B000B7EE007A20EE270AC7EE007AF4EEC77A39
:1057C000F1EE10FA07DDF0EE477AC0ED017A70478E
:1057D000DFED067AE8E7F5EEC07AF1EE10FAF4D5DF
:1057E000DFED037AC0ED017A704700BF6F12033B13
:1057F0000000000030B5044687B00025ADF8141055
:10580000ADF81020ADF80C3005F086F82A4620607F
:10581000059904F12C0025710123009500F0FCFF8F
:1058200001232A46049904F14000009500F0F4FF9A
:105830009FED060A039904F1080000F0E7F94FF61E
:10584000FF73A565A4F8543007B030BD0000000018
:10585000F8B5044605F060F80026236826718342F7
:1058600005D104F10800BDE8F84000F0E7B90127D0
:1058700094F85450206004F12C00BD40277101F0D1
:10588000B1F86DB2284394F85550BD4084F85400E7
:1058900004F1400001F0A6F894F854306DB2A6650A
:1058A00003F003032843022BC0B284F8550009D04B
:1058B00000F003000228D4D1002BD2D14FF0FF33E7
:1058C000A365CEE78307CCD1A765CAE770B584B0DE
:1058D000002504461646ADF80C102B462A460399BF
:1058E000009500F099FFA582A67504B070BD00BFB9
:1058F000704700BFF8B5134F3C687F2C07D9802351
:10590000114A42F224411C463B60A2F87E100F4D22
:105910002B68012B0AD90C4E0D4D224631462846E4
:1059200000F03EFA0028F8D13860F8BD224606495A
:10593000074800F035FA0028F7D12B6838600133AA
:105940002B60F8BD68B400246CB4002464B4002457
:10595000ECB4002430B4154C2168F1B14B1E144D49
:10596000E81810F801298C4619460A2A01D00D2A98
:1059700002D14BB1013BF4E70CF102037F2B10D9AC
:105980008023236030BC70470122022323600D2056
:105990000A236854AB5430BC704701220223044DE3
:1059A000F4E70CF101026146F0E700BF68B400249F
:1059B0006CB4002410B5094C02460B460848216817
:1059C0000844C1F1800113F04FFE236818442060A1
:1059D000FFF7C0FFFFF78EFF10BD00BF68B40024C3
:1059E0006CB400240FB400B583B004A951F8040BC3
:1059F0000191FFF7DFFF03B05DF804EB04B07047DF
:105A000010B5044600210A4800F044F9002C094B67
:105A100014BF0222002208481A60FFF7E3FF07487C
:105A2000FFF7E0FF0A20BDE8104004F077BF00BF99
:105A3000ECB4002464B4002468C4010878C40108EC
:105A4000064A0749074808B512F0C0FB034A044953
:105A50000548BDE8084012F0B9BB00BF00000024B3
:105A6000F1580008ECB40024F0B40024064A0749B9
:105A700010B40024C0E900424FF480725DF8044B7A
:105A8000C0E90212704700BF010701060040003064
:105A900038B50446104694F895301942237815D04D
:105AA000032B19D094F89820002594F896300A40DA
:105AB00025700B40A26001F0F8021B09F82A23713F
:105AC00000F08680092B73D9002038BD032BFBD84A
:105AD000DFE803F0112A5102F7291CD094F98E2037
